{
    "contractName": "Validators",
    "abi": [
        {
            "inputs": [],
            "stateMutability": "nonpayable",
            "type": "constructor"
        },
        {
            "anonymous": false,
            "inputs": [
                {
                    "indexed": false,
                    "internalType": "uint256",
                    "name": "_number",
                    "type": "uint256"
                }
            ],
            "name": "SetNumber",
            "type": "event"
        },
        {
            "inputs": [],
            "name": "getNumber",
            "outputs": [
                {
                    "internalType": "uint256",
                    "name": "",
                    "type": "uint256"
                }
            ],
            "stateMutability": "view",
            "type": "function"
        },
        {
            "inputs": [],
            "name": "getValidators",
            "outputs": [
                {
                    "internalType": "address[]",
                    "name": "",
                    "type": "address[]"
                }
            ],
            "stateMutability": "view",
            "type": "function"
        },
        {
            "inputs": [
                {
                    "internalType": "uint256",
                    "name": "_number",
                    "type": "uint256"
                }
            ],
            "name": "setNumber",
            "outputs": [],
            "stateMutability": "nonpayable",
            "type": "function"
        }
    ],
    "bytecode": "6080806040523461001b5760056001556101cd90816100208239f35b5f80fdfe6080806040526004361015610012575f80fd5b5f90813560e01c9081633fb5c1cb1461014f57508063b7ab4db51461005f5763f2c9ecd81461003f575f80fd5b3461005c578060031936011261005c576020600154604051908152f35b80fd5b503461005c578060031936011261005c5760405180825491828152602080910180938580527f290decd9548b62a8d60345a988386fc84ba6bc95484008f6362f93160ef3e56390865b848282106101325750505050829003601f01601f191682019367ffffffffffffffff85118386101761011e5790918493928460405280850191818652518092526040850193925b8281106100fe57505050500390f35b83516001600160a01b0316855286955093810193928101926001016100ef565b634e487b7160e01b81526041600452602490fd5b83546001600160a01b0316855290930192600192830192016100a8565b9050346101935760203660031901126101935760207f331bb01bcf77ec721a35a558a7984e8e6ca33b507d3ee1dd13b76f64381e54d491600435806001558152a180f35b5080fdfea26469706673582212207c218de5ebd901534139588d70e2797e8c29b4c67ce2aa4b439d0c290b3ae80364736f6c63430008150033",
    "sourcePath": "/Users/Kirsty/Developer/besu-challenge/besu/consensus/qbft-core/src/integration-test/resources/validator_contract.sol",
    "compiler": {
        "name": "solc",
        "version": "0.8.21+commit.d9974bed"
    },
    "functionHashes": {
        "getNumber()": "f2c9ecd8",
        "getValidators()": "b7ab4db5",
        "setNumber(uint256)": "3fb5c1cb"
    },
    "gasEstimates": {
        "creation": {
            "codeDepositCost": "92200",
            "executionCost": "22253",
            "totalCost": "114453"
        },
        "external": {
            "getNumber()": "2304",
            "getValidators()": "infinite",
            "setNumber(uint256)": "23281"
        }
    }
}